{
  "_format": "hh-sol-artifact-1",
  "contractName": "ERC20PermitMock",
  "sourceName": "contracts/mock/ERC20PermitMock.sol",
  "abi": [
    {
      "inputs": [
        {
          "internalType": "string",
          "name": "name",
          "type": "string"
        },
        {
          "internalType": "string",
          "name": "symbol",
          "type": "string"
        },
        {
          "internalType": "address",
          "name": "initialAccount",
          "type": "address"
        },
        {
          "internalType": "uint256",
          "name": "initialBalance",
          "type": "uint256"
        }
      ],
      "stateMutability": "payable",
      "type": "constructor"
    },
    {
      "anonymous": false,
      "inputs": [
        {
          "indexed": true,
          "internalType": "address",
          "name": "owner",
          "type": "address"
        },
        {
          "indexed": true,
          "internalType": "address",
          "name": "spender",
          "type": "address"
        },
        {
          "indexed": false,
          "internalType": "uint256",
          "name": "value",
          "type": "uint256"
        }
      ],
      "name": "Approval",
      "type": "event"
    },
    {
      "anonymous": false,
      "inputs": [
        {
          "indexed": true,
          "internalType": "address",
          "name": "from",
          "type": "address"
        },
        {
          "indexed": true,
          "internalType": "address",
          "name": "to",
          "type": "address"
        },
        {
          "indexed": false,
          "internalType": "uint256",
          "name": "value",
          "type": "uint256"
        }
      ],
      "name": "Transfer",
      "type": "event"
    },
    {
      "inputs": [],
      "name": "EIP712DOMAIN_HASH",
      "outputs": [
        {
          "internalType": "bytes32",
          "name": "",
          "type": "bytes32"
        }
      ],
      "stateMutability": "view",
      "type": "function"
    },
    {
      "inputs": [],
      "name": "NAME_HASH",
      "outputs": [
        {
          "internalType": "bytes32",
          "name": "",
          "type": "bytes32"
        }
      ],
      "stateMutability": "view",
      "type": "function"
    },
    {
      "inputs": [],
      "name": "PERMIT_TYPEHASH",
      "outputs": [
        {
          "internalType": "bytes32",
          "name": "",
          "type": "bytes32"
        }
      ],
      "stateMutability": "view",
      "type": "function"
    },
    {
      "inputs": [],
      "name": "VERSION_HASH",
      "outputs": [
        {
          "internalType": "bytes32",
          "name": "",
          "type": "bytes32"
        }
      ],
      "stateMutability": "view",
      "type": "function"
    },
    {
      "inputs": [
        {
          "internalType": "address",
          "name": "owner",
          "type": "address"
        },
        {
          "internalType": "address",
          "name": "spender",
          "type": "address"
        }
      ],
      "name": "allowance",
      "outputs": [
        {
          "internalType": "uint256",
          "name": "",
          "type": "uint256"
        }
      ],
      "stateMutability": "view",
      "type": "function"
    },
    {
      "inputs": [
        {
          "internalType": "address",
          "name": "spender",
          "type": "address"
        },
        {
          "internalType": "uint256",
          "name": "amount",
          "type": "uint256"
        }
      ],
      "name": "approve",
      "outputs": [
        {
          "internalType": "bool",
          "name": "",
          "type": "bool"
        }
      ],
      "stateMutability": "nonpayable",
      "type": "function"
    },
    {
      "inputs": [
        {
          "internalType": "address",
          "name": "owner",
          "type": "address"
        },
        {
          "internalType": "address",
          "name": "spender",
          "type": "address"
        },
        {
          "internalType": "uint256",
          "name": "value",
          "type": "uint256"
        }
      ],
      "name": "approveInternal",
      "outputs": [],
      "stateMutability": "nonpayable",
      "type": "function"
    },
    {
      "inputs": [
        {
          "internalType": "address",
          "name": "account",
          "type": "address"
        }
      ],
      "name": "balanceOf",
      "outputs": [
        {
          "internalType": "uint256",
          "name": "",
          "type": "uint256"
        }
      ],
      "stateMutability": "view",
      "type": "function"
    },
    {
      "inputs": [
        {
          "internalType": "uint256",
          "name": "value",
          "type": "uint256"
        }
      ],
      "name": "burn",
      "outputs": [
        {
          "internalType": "bool",
          "name": "",
          "type": "bool"
        }
      ],
      "stateMutability": "nonpayable",
      "type": "function"
    },
    {
      "inputs": [
        {
          "internalType": "address",
          "name": "account",
          "type": "address"
        },
        {
          "internalType": "uint256",
          "name": "amount",
          "type": "uint256"
        }
      ],
      "name": "burn",
      "outputs": [],
      "stateMutability": "nonpayable",
      "type": "function"
    },
    {
      "inputs": [],
      "name": "decimals",
      "outputs": [
        {
          "internalType": "uint8",
          "name": "",
          "type": "uint8"
        }
      ],
      "stateMutability": "view",
      "type": "function"
    },
    {
      "inputs": [
        {
          "internalType": "address",
          "name": "spender",
          "type": "address"
        },
        {
          "internalType": "uint256",
          "name": "subtractedValue",
          "type": "uint256"
        }
      ],
      "name": "decreaseAllowance",
      "outputs": [
        {
          "internalType": "bool",
          "name": "",
          "type": "bool"
        }
      ],
      "stateMutability": "nonpayable",
      "type": "function"
    },
    {
      "inputs": [],
      "name": "defaultMintAmount",
      "outputs": [
        {
          "internalType": "uint256",
          "name": "",
          "type": "uint256"
        }
      ],
      "stateMutability": "view",
      "type": "function"
    },
    {
      "inputs": [
        {
          "internalType": "address",
          "name": "owner",
          "type": "address"
        },
        {
          "internalType": "address",
          "name": "spender",
          "type": "address"
        },
        {
          "internalType": "uint256",
          "name": "value",
          "type": "uint256"
        },
        {
          "internalType": "uint256",
          "name": "deadline",
          "type": "uint256"
        }
      ],
      "name": "digestView",
      "outputs": [
        {
          "internalType": "bytes32",
          "name": "",
          "type": "bytes32"
        }
      ],
      "stateMutability": "view",
      "type": "function"
    },
    {
      "inputs": [],
      "name": "domainSeparatorView",
      "outputs": [
        {
          "internalType": "bytes32",
          "name": "",
          "type": "bytes32"
        }
      ],
      "stateMutability": "view",
      "type": "function"
    },
    {
      "inputs": [
        {
          "internalType": "address",
          "name": "owner",
          "type": "address"
        },
        {
          "internalType": "address",
          "name": "spender",
          "type": "address"
        },
        {
          "internalType": "uint256",
          "name": "value",
          "type": "uint256"
        },
        {
          "internalType": "uint256",
          "name": "deadline",
          "type": "uint256"
        }
      ],
      "name": "encodeDataView",
      "outputs": [
        {
          "internalType": "bytes32",
          "name": "",
          "type": "bytes32"
        }
      ],
      "stateMutability": "view",
      "type": "function"
    },
    {
      "inputs": [],
      "name": "getChainId",
      "outputs": [
        {
          "internalType": "uint256",
          "name": "chainId",
          "type": "uint256"
        }
      ],
      "stateMutability": "pure",
      "type": "function"
    },
    {
      "inputs": [
        {
          "internalType": "address",
          "name": "spender",
          "type": "address"
        },
        {
          "internalType": "uint256",
          "name": "addedValue",
          "type": "uint256"
        }
      ],
      "name": "increaseAllowance",
      "outputs": [
        {
          "internalType": "bool",
          "name": "",
          "type": "bool"
        }
      ],
      "stateMutability": "nonpayable",
      "type": "function"
    },
    {
      "inputs": [
        {
          "internalType": "address",
          "name": "account",
          "type": "address"
        },
        {
          "internalType": "uint256",
          "name": "amount",
          "type": "uint256"
        }
      ],
      "name": "mint",
      "outputs": [],
      "stateMutability": "nonpayable",
      "type": "function"
    },
    {
      "inputs": [],
      "name": "name",
      "outputs": [
        {
          "internalType": "string",
          "name": "",
          "type": "string"
        }
      ],
      "stateMutability": "view",
      "type": "function"
    },
    {
      "inputs": [
        {
          "internalType": "address",
          "name": "",
          "type": "address"
        }
      ],
      "name": "nonces",
      "outputs": [
        {
          "internalType": "uint256",
          "name": "",
          "type": "uint256"
        }
      ],
      "stateMutability": "view",
      "type": "function"
    },
    {
      "inputs": [
        {
          "internalType": "address",
          "name": "owner",
          "type": "address"
        },
        {
          "internalType": "address",
          "name": "spender",
          "type": "address"
        },
        {
          "internalType": "uint256",
          "name": "value",
          "type": "uint256"
        },
        {
          "internalType": "uint256",
          "name": "deadline",
          "type": "uint256"
        },
        {
          "internalType": "uint8",
          "name": "v",
          "type": "uint8"
        },
        {
          "internalType": "bytes32",
          "name": "r",
          "type": "bytes32"
        },
        {
          "internalType": "bytes32",
          "name": "s",
          "type": "bytes32"
        }
      ],
      "name": "permit",
      "outputs": [],
      "stateMutability": "nonpayable",
      "type": "function"
    },
    {
      "inputs": [],
      "name": "symbol",
      "outputs": [
        {
          "internalType": "string",
          "name": "",
          "type": "string"
        }
      ],
      "stateMutability": "view",
      "type": "function"
    },
    {
      "inputs": [],
      "name": "totalSupply",
      "outputs": [
        {
          "internalType": "uint256",
          "name": "",
          "type": "uint256"
        }
      ],
      "stateMutability": "view",
      "type": "function"
    },
    {
      "inputs": [
        {
          "internalType": "address",
          "name": "recipient",
          "type": "address"
        },
        {
          "internalType": "uint256",
          "name": "amount",
          "type": "uint256"
        }
      ],
      "name": "transfer",
      "outputs": [
        {
          "internalType": "bool",
          "name": "",
          "type": "bool"
        }
      ],
      "stateMutability": "nonpayable",
      "type": "function"
    },
    {
      "inputs": [
        {
          "internalType": "address",
          "name": "sender",
          "type": "address"
        },
        {
          "internalType": "address",
          "name": "recipient",
          "type": "address"
        },
        {
          "internalType": "uint256",
          "name": "amount",
          "type": "uint256"
        }
      ],
      "name": "transferFrom",
      "outputs": [
        {
          "internalType": "bool",
          "name": "",
          "type": "bool"
        }
      ],
      "stateMutability": "nonpayable",
      "type": "function"
    },
    {
      "inputs": [
        {
          "internalType": "address",
          "name": "from",
          "type": "address"
        },
        {
          "internalType": "address",
          "name": "to",
          "type": "address"
        },
        {
          "internalType": "uint256",
          "name": "value",
          "type": "uint256"
        }
      ],
      "name": "transferInternal",
      "outputs": [],
      "stateMutability": "nonpayable",
      "type": "function"
    },
    {
      "stateMutability": "payable",
      "type": "receive"
    }
  ],
  "bytecode": "0x608060405260405162001a9d38038062001a9d833981810160405260808110156200002957600080fd5b81019080805160405193929190846401000000008211156200004a57600080fd5b9083019060208201858111156200006057600080fd5b82516401000000008111828201881017156200007b57600080fd5b82525081516020918201929091019080838360005b83811015620000aa57818101518382015260200162000090565b50505050905090810190601f168015620000d85780820380516001836020036101000a031916815260200191505b5060405260200180516040519392919084640100000000821115620000fc57600080fd5b9083019060208201858111156200011257600080fd5b82516401000000008111828201881017156200012d57600080fd5b82525081516020918201929091019080838360005b838110156200015c57818101518382015260200162000142565b50505050905090810190601f1680156200018a5780820380516001836020036101000a031916815260200191505b50604090815260208281015192909101518651929450925085918591620001b79160039185019062000376565b508051620001cd90600490602084019062000376565b50506005805460ff1916601217905550620001e9828262000200565b505081516020909201919091206007555062000412565b6001600160a01b0382166200025c576040805162461bcd60e51b815260206004820152601f60248201527f45524332303a206d696e7420746f20746865207a65726f206164647265737300604482015290519081900360640190fd5b6200026a600083836200030f565b62000286816002546200031460201b62000e7e1790919060201c565b6002556001600160a01b03821660009081526020818152604090912054620002b991839062000e7e62000314821b17901c565b6001600160a01b0383166000818152602081815260408083209490945583518581529351929391927fddf252ad1be2c89b69c2b068fc378daa952ba7f163c4a11628f55a4df523b3ef9281900390910190a35050565b505050565b6000828201838110156200036f576040805162461bcd60e51b815260206004820152601b60248201527f536166654d6174683a206164646974696f6e206f766572666c6f770000000000604482015290519081900360640190fd5b9392505050565b828054600181600116156101000203166002900490600052602060002090601f016020900481019282601f10620003b957805160ff1916838001178555620003e9565b82800160010185558215620003e9579182015b82811115620003e9578251825591602001919060010190620003cc565b50620003f7929150620003fb565b5090565b5b80821115620003f75760008155600101620003fc565b61167b80620004226000396000f3fe6080604052600436106101a05760003560e01c806342966c68116100ec5780639e4e73181161008a578063c473af3311610064578063c473af331461066e578063d505accf14610683578063dd62ed3e146106e1578063e33609b31461071c576101ba565b80639e4e7318146105e7578063a457c2d7146105fc578063a9059cbb14610635576101ba565b80637ecebe00116100c65780637ecebe001461051d5780638f878a4c1461055057806395d89b41146105995780639dc29fac146105ae576101ba565b806342966c681461047d57806356189cb4146104a757806370a08231146104ea576101ba565b806323b872dd11610159578063313ce56711610133578063313ce567146103cb5780633408e470146103f6578063395093511461040b57806340c10f1914610444576101ba565b806323b872dd1461032a5780632c93c0ac1461036d57806330adf81f146103b6576101ba565b806304622c2e146101bf57806305b23f2f146101e657806306fdde03146101fb578063095ea7b31461028557806318160ddd146102d2578063222f5be0146102e7576101ba565b366101ba576101b833683635c9adc5dea00000610731565b005b600080fd5b3480156101cb57600080fd5b506101d4610821565b60408051918252519081900360200190f35b3480156101f257600080fd5b506101d4610827565b34801561020757600080fd5b50610210610834565b6040805160208082528351818301528351919283929083019185019080838360005b8381101561024a578181015183820152602001610232565b50505050905090810190601f1680156102775780820380516001836020036101000a031916815260200191505b509250505060405180910390f35b34801561029157600080fd5b506102be600480360360408110156102a857600080fd5b506001600160a01b0381351690602001356108ca565b604080519115158252519081900360200190f35b3480156102de57600080fd5b506101d46108e7565b3480156102f357600080fd5b506101b86004803603606081101561030a57600080fd5b506001600160a01b038135811691602081013590911690604001356108ed565b34801561033657600080fd5b506102be6004803603606081101561034d57600080fd5b506001600160a01b038135811691602081013590911690604001356108fd565b34801561037957600080fd5b506101d46004803603608081101561039057600080fd5b506001600160a01b03813581169160208101359091169060408101359060600135610984565b3480156103c257600080fd5b506101d4610aa0565b3480156103d757600080fd5b506103e0610ab2565b6040805160ff9092168252519081900360200190f35b34801561040257600080fd5b506101d4610abb565b34801561041757600080fd5b506102be6004803603604081101561042e57600080fd5b506001600160a01b038135169060200135610abf565b34801561045057600080fd5b506101b86004803603604081101561046757600080fd5b506001600160a01b038135169060200135610b0d565b34801561048957600080fd5b506102be600480360360208110156104a057600080fd5b5035610b1b565b3480156104b357600080fd5b506101b8600480360360608110156104ca57600080fd5b506001600160a01b03813581169160208101359091169060400135610b2f565b3480156104f657600080fd5b506101d46004803603602081101561050d57600080fd5b50356001600160a01b0316610b3a565b34801561052957600080fd5b506101d46004803603602081101561054057600080fd5b50356001600160a01b0316610b55565b34801561055c57600080fd5b506101d46004803603608081101561057357600080fd5b506001600160a01b03813581169160208101359091169060408101359060600135610b67565b3480156105a557600080fd5b50610210610bdc565b3480156105ba57600080fd5b506101b8600480360360408110156105d157600080fd5b506001600160a01b038135169060200135610c3d565b3480156105f357600080fd5b506101d4610c47565b34801561060857600080fd5b506102be6004803603604081101561061f57600080fd5b506001600160a01b038135169060200135610c59565b34801561064157600080fd5b506102be6004803603604081101561065857600080fd5b506001600160a01b038135169060200135610cc1565b34801561067a57600080fd5b506101d4610cd5565b34801561068f57600080fd5b506101b8600480360360e08110156106a657600080fd5b506001600160a01b03813581169160208101359091169060408101359060608101359060ff6080820135169060a08101359060c00135610ce7565b3480156106ed57600080fd5b506101d46004803603604081101561070457600080fd5b506001600160a01b0381358116916020013516610dd5565b34801561072857600080fd5b506101d4610e00565b6001600160a01b03821661078c576040805162461bcd60e51b815260206004820152601f60248201527f45524332303a206d696e7420746f20746865207a65726f206164647265737300604482015290519081900360640190fd5b610798600083836108f8565b6002546107a59082610e7e565b6002556001600160a01b0382166000908152602081905260409020546107cb9082610e7e565b6001600160a01b0383166000818152602081815260408083209490945583518581529351929391927fddf252ad1be2c89b69c2b068fc378daa952ba7f163c4a11628f55a4df523b3ef9281900390910190a35050565b60075481565b683635c9adc5dea0000081565b60038054604080516020601f60026000196101006001881615020190951694909404938401819004810282018101909252828152606093909290918301828280156108c05780601f10610895576101008083540402835291602001916108c0565b820191906000526020600020905b8154815290600101906020018083116108a357829003601f168201915b5050505050905090565b60006108de6108d7610edf565b8484610ee3565b50600192915050565b60025490565b6108f8838383610fcf565b505050565b600061090a848484610fcf565b61097a84610916610edf565b6109758560405180606001604052806028815260200161154f602891396001600160a01b038a16600090815260016020526040812090610954610edf565b6001600160a01b03168152602081019190915260400160002054919061112a565b610ee3565b5060019392505050565b6001600160a01b038085166000818152600660209081526040808320548151600080516020611598833981519152818501528083019590955294881660608501526080840187905260a084019490945260c08084018690528451808503909101815260e090930190935281519190920120600754829060008051602061160183398151915290600080516020611504833981519152610a21610abb565b6040805160208082019690965280820194909452606084019290925260808301523060a0808401919091528151808403909101815260c08301825280519084012061190160f01b60e084015260e28301526101028083019590955280518083039095018552610122909101905282519201919091209695505050505050565b60008051602061159883398151915281565b60055460ff1690565b4690565b60006108de610acc610edf565b846109758560016000610add610edf565b6001600160a01b03908116825260208083019390935260409182016000908120918c168152925290205490610e7e565b610b178282610731565b5050565b6000610b2733836111c1565b506001919050565b6108f8838383610ee3565b6001600160a01b031660009081526020819052604090205490565b60066020526000908152604090205481565b6001600160a01b039384166000818152600660209081526040918290205482516000805160206115988339815191528184015280840194909452959096166060830152608082019390935260a081019390935260c0808401919091528151808403909101815260e09092019052805191012090565b60048054604080516020601f60026000196101006001881615020190951694909404938401819004810282018101909252828152606093909290918301828280156108c05780601f10610895576101008083540402835291602001916108c0565b610b1782826111c1565b60008051602061150483398151915281565b60006108de610c66610edf565b84610975856040518060600160405280602581526020016116216025913960016000610c90610edf565b6001600160a01b03908116825260208083019390935260409182016000908120918d1681529252902054919061112a565b60006108de610cce610edf565b8484610fcf565b60008051602061160183398151915281565b42841015610d3c576040805162461bcd60e51b815260206004820152601960248201527f48455a3a3a7065726d69743a20415554485f4558504952454400000000000000604482015290519081900360640190fd5b6001600160a01b0380881660008181526006602090815260409182902080546001810190915582516000805160206115988339815191528184015280840194909452938a1660608401526080830189905260a083019390935260c08083018890528151808403909101815260e090920190528051910120610dc088828686866112bd565b610dcb888888610ee3565b5050505050505050565b6001600160a01b03918216600090815260016020908152604080832093909416825291909152205490565b60075460009060008051602061160183398151915290600080516020611504833981519152610e2d610abb565b3060405160200180868152602001858152602001848152602001838152602001826001600160a01b031681526020019550505050505060405160208183030381529060405280519060200120905090565b600082820183811015610ed8576040805162461bcd60e51b815260206004820152601b60248201527f536166654d6174683a206164646974696f6e206f766572666c6f770000000000604482015290519081900360640190fd5b9392505050565b3390565b6001600160a01b038316610f285760405162461bcd60e51b81526004018080602001828103825260248152602001806115dd6024913960400191505060405180910390fd5b6001600160a01b038216610f6d5760405162461bcd60e51b81526004018080602001828103825260228152602001806114bc6022913960400191505060405180910390fd5b6001600160a01b03808416600081815260016020908152604080832094871680845294825291829020859055815185815291517f8c5be1e5ebec7d5bd14f71427d1e84f3dd0314c0f7b2291e5b200ac8c7c3b9259281900390910190a3505050565b6001600160a01b0383166110145760405162461bcd60e51b81526004018080602001828103825260258152602001806115b86025913960400191505060405180910390fd5b6001600160a01b0382166110595760405162461bcd60e51b81526004018080602001828103825260238152602001806114776023913960400191505060405180910390fd5b6110648383836108f8565b6110a1816040518060600160405280602681526020016114de602691396001600160a01b038616600090815260208190526040902054919061112a565b6001600160a01b0380851660009081526020819052604080822093909355908416815220546110d09082610e7e565b6001600160a01b038084166000818152602081815260409182902094909455805185815290519193928716927fddf252ad1be2c89b69c2b068fc378daa952ba7f163c4a11628f55a4df523b3ef92918290030190a3505050565b600081848411156111b95760405162461bcd60e51b81526004018080602001828103825283818151815260200191508051906020019080838360005b8381101561117e578181015183820152602001611166565b50505050905090810190601f1680156111ab5780820380516001836020036101000a031916815260200191505b509250505060405180910390fd5b505050900390565b6001600160a01b0382166112065760405162461bcd60e51b81526004018080602001828103825260218152602001806115776021913960400191505060405180910390fd5b611212826000836108f8565b61124f8160405180606001604052806022815260200161149a602291396001600160a01b038516600090815260208190526040902054919061112a565b6001600160a01b0383166000908152602081905260409020556002546112759082611434565b6002556040805182815290516000916001600160a01b038516917fddf252ad1be2c89b69c2b068fc378daa952ba7f163c4a11628f55a4df523b3ef9181900360200190a35050565b600754600090600080516020611601833981519152906000805160206115048339815191526112ea610abb565b6040805160208082019690965280820194909452606084019290925260808301523060a0808401919091528151808403909101815260c08301825280519084012061190160f01b60e084015260e283018190526101028084018a9052825180850390910181526101228401808452815191860191909120600091829052610142850180855281905260ff8a1661016286015261018285018990526101a285018890529251919550919391926001926101c2808301939192601f198301929081900390910190855afa1580156113c3573d6000803e3d6000fd5b5050604051601f1901519150506001600160a01b038116158015906113f95750876001600160a01b0316816001600160a01b0316145b610dcb5760405162461bcd60e51b815260040180806020018281038252602b815260200180611524602b913960400191505060405180910390fd5b6000610ed883836040518060400160405280601e81526020017f536166654d6174683a207375627472616374696f6e206f766572666c6f77000081525061112a56fe45524332303a207472616e7366657220746f20746865207a65726f206164647265737345524332303a206275726e20616d6f756e7420657863656564732062616c616e636545524332303a20617070726f766520746f20746865207a65726f206164647265737345524332303a207472616e7366657220616d6f756e7420657863656564732062616c616e6365c89efdaa54c0f20c7adf612882df0950f5a951637e0307cdcb4c672f298b8bc648455a3a3a5f76616c69646174655369676e6564446174613a20494e56414c49445f5349474e415455524545524332303a207472616e7366657220616d6f756e74206578636565647320616c6c6f77616e636545524332303a206275726e2066726f6d20746865207a65726f20616464726573736e71edae12b1b97f4d1f60370fef10105fa2faae0126114a169c64845d6126c945524332303a207472616e736665722066726f6d20746865207a65726f206164647265737345524332303a20617070726f76652066726f6d20746865207a65726f20616464726573738b73c3c69bb8fe3d512ecc4cf759cc79239f7b179b0ffacaa9a75d522b39400f45524332303a2064656372656173656420616c6c6f77616e63652062656c6f77207a65726fa2646970667358221220eb69bd4d20790703342359b7f6e3c84c2b8c07f34b21b68428df02bd4910733264736f6c634300060c0033",
  "linkReferences": {},
  "deployedLinkReferences": {}
}